{
  "contractName": "Document",
  "abi": [
    {
      "inputs": [
        {
          "internalType": "string",
          "name": "newwords",
          "type": "string"
        }
      ],
      "name": "setContent",
      "outputs": [],
      "stateMutability": "nonpayable",
      "type": "function"
    },
    {
      "inputs": [],
      "name": "getContent",
      "outputs": [
        {
          "internalType": "string",
          "name": "",
          "type": "string"
        }
      ],
      "stateMutability": "view",
      "type": "function"
    },
    {
      "inputs": [
        {
          "internalType": "string",
          "name": "newwords",
          "type": "string"
        }
      ],
      "name": "setIpfsCid",
      "outputs": [],
      "stateMutability": "nonpayable",
      "type": "function"
    },
    {
      "inputs": [],
      "name": "getIpfsCid",
      "outputs": [
        {
          "internalType": "string",
          "name": "",
          "type": "string"
        }
      ],
      "stateMutability": "view",
      "type": "function"
    },
    {
      "inputs": [
        {
          "internalType": "bytes",
          "name": "_message",
          "type": "bytes"
        },
        {
          "internalType": "uint8",
          "name": "_v",
          "type": "uint8"
        },
        {
          "internalType": "bytes32",
          "name": "_r",
          "type": "bytes32"
        },
        {
          "internalType": "bytes32",
          "name": "_s",
          "type": "bytes32"
        }
      ],
      "name": "verify",
      "outputs": [
        {
          "internalType": "address",
          "name": "",
          "type": "address"
        }
      ],
      "stateMutability": "pure",
      "type": "function"
    }
  ],
  "bytecode": "0x608060405234801561001057600080fd5b50610b32806100206000396000f3fe608060405234801561001057600080fd5b50600436106100575760003560e01c80632fd1603a1461005c5780633be8fd6a1461008c57806354181ded146100a857806359016c79146100c6578063d16830f1146100e4575b600080fd5b610076600480360381019061007191906104dc565b610100565b60405161008391906105a0565b60405180910390f35b6100a660048036038101906100a1919061065c565b6101c9565b005b6100b06101dc565b6040516100bd9190610724565b60405180910390f35b6100ce61026e565b6040516100db9190610724565b60405180910390f35b6100fe60048036038101906100f9919061065c565b610300565b005b6000806040518060400160405280601c81526020017f19457468657265756d205369676e6564204d6573736167653a0a33320000000081525090506000818760405160200161015092919061078d565b60405160208183030381529060405280519060200120905060006001828888886040516000815260200160405260405161018d94939291906107cf565b6020604051602081039080840390855afa1580156101af573d6000803e3d6000fd5b505050602060405103519050809350505050949350505050565b80600090816101d89190610a2a565b5050565b6060600180546101eb90610843565b80601f016020809104026020016040519081016040528092919081815260200182805461021790610843565b80156102645780601f1061023957610100808354040283529160200191610264565b820191906000526020600020905b81548152906001019060200180831161024757829003601f168201915b5050505050905090565b60606000805461027d90610843565b80601f01602080910402602001604051908101604052809291908181526020018280546102a990610843565b80156102f65780601f106102cb576101008083540402835291602001916102f6565b820191906000526020600020905b8154815290600101906020018083116102d957829003601f168201915b5050505050905090565b806001908161030f9190610a2a565b5050565b6000604051905090565b600080fd5b600080fd5b600080fd5b600080fd5b6000601f19601f8301169050919050565b7f4e487b7100000000000000000000000000000000000000000000000000000000600052604160045260246000fd5b61037a82610331565b810181811067ffffffffffffffff8211171561039957610398610342565b5b80604052505050565b60006103ac610313565b90506103b88282610371565b919050565b600067ffffffffffffffff8211156103d8576103d7610342565b5b6103e182610331565b9050602081019050919050565b82818337600083830152505050565b600061041061040b846103bd565b6103a2565b90508281526020810184848401111561042c5761042b61032c565b5b6104378482856103ee565b509392505050565b600082601f83011261045457610453610327565b5b81356104648482602086016103fd565b91505092915050565b600060ff82169050919050565b6104838161046d565b811461048e57600080fd5b50565b6000813590506104a08161047a565b92915050565b6000819050919050565b6104b9816104a6565b81146104c457600080fd5b50565b6000813590506104d6816104b0565b92915050565b600080600080608085870312156104f6576104f561031d565b5b600085013567ffffffffffffffff81111561051457610513610322565b5b6105208782880161043f565b945050602061053187828801610491565b9350506040610542878288016104c7565b9250506060610553878288016104c7565b91505092959194509250565b600073ffffffffffffffffffffffffffffffffffffffff82169050919050565b600061058a8261055f565b9050919050565b61059a8161057f565b82525050565b60006020820190506105b56000830184610591565b92915050565b600067ffffffffffffffff8211156105d6576105d5610342565b5b6105df82610331565b9050602081019050919050565b60006105ff6105fa846105bb565b6103a2565b90508281526020810184848401111561061b5761061a61032c565b5b6106268482856103ee565b509392505050565b600082601f83011261064357610642610327565b5b81356106538482602086016105ec565b91505092915050565b6000602082840312156106725761067161031d565b5b600082013567ffffffffffffffff8111156106905761068f610322565b5b61069c8482850161062e565b91505092915050565b600081519050919050565b600082825260208201905092915050565b60005b838110156106df5780820151818401526020810190506106c4565b60008484015250505050565b60006106f6826106a5565b61070081856106b0565b93506107108185602086016106c1565b61071981610331565b840191505092915050565b6000602082019050818103600083015261073e81846106eb565b905092915050565b600081519050919050565b600081905092915050565b600061076782610746565b6107718185610751565b93506107818185602086016106c1565b80840191505092915050565b6000610799828561075c565b91506107a5828461075c565b91508190509392505050565b6107ba816104a6565b82525050565b6107c98161046d565b82525050565b60006080820190506107e460008301876107b1565b6107f160208301866107c0565b6107fe60408301856107b1565b61080b60608301846107b1565b95945050505050565b7f4e487b7100000000000000000000000000000000000000000000000000000000600052602260045260246000fd5b6000600282049050600182168061085b57607f821691505b60208210810361086e5761086d610814565b5b50919050565b60008190508160005260206000209050919050565b60006020601f8301049050919050565b600082821b905092915050565b6000600883026108d67fffffffffffffffffffffffffffffffffffffffffffffffffffffffffffffffff82610899565b6108e08683610899565b95508019841693508086168417925050509392505050565b6000819050919050565b6000819050919050565b600061092761092261091d846108f8565b610902565b6108f8565b9050919050565b6000819050919050565b6109418361090c565b61095561094d8261092e565b8484546108a6565b825550505050565b600090565b61096a61095d565b610975818484610938565b505050565b5b818110156109995761098e600082610962565b60018101905061097b565b5050565b601f8211156109de576109af81610874565b6109b884610889565b810160208510156109c7578190505b6109db6109d385610889565b83018261097a565b50505b505050565b600082821c905092915050565b6000610a01600019846008026109e3565b1980831691505092915050565b6000610a1a83836109f0565b9150826002028217905092915050565b610a33826106a5565b67ffffffffffffffff811115610a4c57610a4b610342565b5b610a568254610843565b610a6182828561099d565b600060209050601f831160018114610a945760008415610a82578287015190505b610a8c8582610a0e565b865550610af4565b601f198416610aa286610874565b60005b82811015610aca57848901518255600182019150602085019450602081019050610aa5565b86831015610ae75784890151610ae3601f8916826109f0565b8355505b6001600288020188555050505b50505050505056fea2646970667358221220c89a343bd1f8e56323d9609cd93d5a2dd9191cd258b4e405283a3503b19068a464736f6c63430008130033",
  "immutableReferences": {},
  "source": "// SPDX-License-Identifier: GPL-3.0\n\npragma solidity >=0.7.0 <0.9.0;\n\n/**\n * @title Document words\n * @dev Store & retrieve value in a variable\n * @custom:dev-run-script ./scripts/deploy_with_ethers.ts\n */\ncontract Document {\n    string content;\n    string documentIpfsCid;\n\n    /**\n     * @dev Store value in variable\n     * @param newwords value to store\n     */\n    function setContent(string memory newwords) public {\n        content = newwords;\n    }\n\n    /**\n     * @dev Return value\n     * @return value of 'content'\n     */\n    function getContent() public view returns (string memory) {\n        return content;\n    }\n\n    /**\n     * @dev Store value in variable documentIpfsCid\n     * @param newwords value to store\n     */\n    function setIpfsCid(string memory newwords) public {\n        documentIpfsCid = newwords;\n    }\n\n    /**\n     * @dev Return value\n     * @return value of 'documentIpfsCid'\n     */\n    function getIpfsCid() public view returns (string memory) {\n        return documentIpfsCid;\n    }\n\n    /**\n     * @dev verify encryted data\n     * @param _message h = web3.utils.soliditySha3(document);signature = await web3.eth.sign(h, defaultAcc);\n     * @param _v \"0x\" + signature.slice(130, 132); web3.utils.toDecimal(v); v + 27;\n     * @param _r signature.slice(0, 66);\n     * @param _s \"0x\" + signature.slice(66, 130);\n     */\n    function verify(\n        bytes memory _message,\n        uint8 _v,\n        bytes32 _r,\n        bytes32 _s\n    ) public pure returns (address) {\n        bytes memory prefix = \"\\x19Ethereum Signed Message:\\n32\";\n        bytes32 prefixedHash = keccak256(abi.encodePacked(prefix, _message));\n        address signer = ecrecover(prefixedHash, _v, _r, _s);\n        return signer;\n    }\n}\n",
  "sourcePath": "/Users/vaibhavsingh/DAL-MACS/S24/csci6313/csci6313/A3/contracts/Document_ipfs.sol",
  "compiler": {
    "name": "solc",
    "version": "0.8.19+commit.7dd6d404.Emscripten.clang"
  },
  "schemaVersion": "3.4.16",
  "updatedAt": "2024-07-17T18:24:17.862Z",
  "devdoc": {
    "custom:dev-run-script": "./scripts/deploy_with_ethers.ts",
    "details": "Store & retrieve value in a variable",
    "kind": "dev",
    "methods": {
      "getContent()": {
        "details": "Return value",
        "returns": {
          "_0": "value of 'content'"
        }
      },
      "getIpfsCid()": {
        "details": "Return value",
        "returns": {
          "_0": "value of 'documentIpfsCid'"
        }
      },
      "setContent(string)": {
        "details": "Store value in variable",
        "params": {
          "newwords": "value to store"
        }
      },
      "setIpfsCid(string)": {
        "details": "Store value in variable documentIpfsCid",
        "params": {
          "newwords": "value to store"
        }
      },
      "verify(bytes,uint8,bytes32,bytes32)": {
        "details": "verify encryted data",
        "params": {
          "_message": "h = web3.utils.soliditySha3(document);signature = await web3.eth.sign(h, defaultAcc);",
          "_r": "signature.slice(0, 66);",
          "_s": "\"0x\" + signature.slice(66, 130);",
          "_v": "\"0x\" + signature.slice(130, 132); web3.utils.toDecimal(v); v + 27;"
        }
      }
    },
    "title": "Document words",
    "version": 1
  },
  "userdoc": {
    "kind": "user",
    "methods": {},
    "version": 1
  }
}