{
  "contractName": "A1PartB",
  "abi": [
    {
      "inputs": [],
      "name": "document",
      "outputs": [
        {
          "internalType": "string",
          "name": "",
          "type": "string"
        }
      ],
      "stateMutability": "view",
      "type": "function",
      "constant": true
    },
    {
      "inputs": [],
      "name": "documentHash",
      "outputs": [
        {
          "internalType": "bytes32",
          "name": "",
          "type": "bytes32"
        }
      ],
      "stateMutability": "view",
      "type": "function",
      "constant": true
    },
    {
      "inputs": [
        {
          "internalType": "string",
          "name": "doc",
          "type": "string"
        }
      ],
      "name": "storeDocument",
      "outputs": [],
      "stateMutability": "nonpayable",
      "type": "function"
    },
    {
      "inputs": [
        {
          "internalType": "string",
          "name": "doc",
          "type": "string"
        }
      ],
      "name": "getDocument",
      "outputs": [
        {
          "components": [
            {
              "internalType": "string",
              "name": "document",
              "type": "string"
            },
            {
              "internalType": "bytes32",
              "name": "hash",
              "type": "bytes32"
            }
          ],
          "internalType": "struct A1PartB.DocumentResponse",
          "name": "",
          "type": "tuple"
        }
      ],
      "stateMutability": "view",
      "type": "function",
      "constant": true
    }
  ],
  "bytecode": "0x608060405234801561001057600080fd5b506108f2806100206000396000f3fe608060405234801561001057600080fd5b506004361061004c5760003560e01c80631f4339d814610051578063797bec771461006f5780637ccb6a641461008d578063b644f350146100bd575b600080fd5b6100596100d9565b6040516100669190610334565b60405180910390f35b610077610167565b604051610084919061036f565b60405180910390f35b6100a760048036038101906100a291906104d3565b61016d565b6040516100b491906105b2565b60405180910390f35b6100d760048036038101906100d291906104d3565b610235565b005b600080546100e690610603565b80601f016020809104026020016040519081016040528092919081815260200182805461011290610603565b801561015f5780601f106101345761010080835404028352916020019161015f565b820191906000526020600020905b81548152906001019060200180831161014257829003601f168201915b505050505081565b60015481565b610175610287565b8161017f81610257565b6001541461018c57600080fd5b6040518060400160405280600080546101a490610603565b80601f01602080910402602001604051908101604052809291908181526020018280546101d090610603565b801561021d5780601f106101f25761010080835404028352916020019161021d565b820191906000526020600020905b81548152906001019060200180831161020057829003601f168201915b50505050508152602001600154815250915050919050565b806000908161024491906107ea565b5061024e81610257565b60018190555050565b60008160405160200161026a9190610334565b604051602081830303815290604052805190602001209050919050565b604051806040016040528060608152602001600080191681525090565b600081519050919050565b600082825260208201905092915050565b60005b838110156102de5780820151818401526020810190506102c3565b60008484015250505050565b6000601f19601f8301169050919050565b6000610306826102a4565b61031081856102af565b93506103208185602086016102c0565b610329816102ea565b840191505092915050565b6000602082019050818103600083015261034e81846102fb565b905092915050565b6000819050919050565b61036981610356565b82525050565b60006020820190506103846000830184610360565b92915050565b6000604051905090565b600080fd5b600080fd5b600080fd5b600080fd5b7f4e487b7100000000000000000000000000000000000000000000000000000000600052604160045260246000fd5b6103e0826102ea565b810181811067ffffffffffffffff821117156103ff576103fe6103a8565b5b80604052505050565b600061041261038a565b905061041e82826103d7565b919050565b600067ffffffffffffffff82111561043e5761043d6103a8565b5b610447826102ea565b9050602081019050919050565b82818337600083830152505050565b600061047661047184610423565b610408565b905082815260208101848484011115610492576104916103a3565b5b61049d848285610454565b509392505050565b600082601f8301126104ba576104b961039e565b5b81356104ca848260208601610463565b91505092915050565b6000602082840312156104e9576104e8610394565b5b600082013567ffffffffffffffff81111561050757610506610399565b5b610513848285016104a5565b91505092915050565b600082825260208201905092915050565b6000610538826102a4565b610542818561051c565b93506105528185602086016102c0565b61055b816102ea565b840191505092915050565b61056f81610356565b82525050565b60006040830160008301518482036000860152610592828261052d565b91505060208301516105a76020860182610566565b508091505092915050565b600060208201905081810360008301526105cc8184610575565b905092915050565b7f4e487b7100000000000000000000000000000000000000000000000000000000600052602260045260246000fd5b6000600282049050600182168061061b57607f821691505b60208210810361062e5761062d6105d4565b5b50919050565b60008190508160005260206000209050919050565b60006020601f8301049050919050565b600082821b905092915050565b6000600883026106967fffffffffffffffffffffffffffffffffffffffffffffffffffffffffffffffff82610659565b6106a08683610659565b95508019841693508086168417925050509392505050565b6000819050919050565b6000819050919050565b60006106e76106e26106dd846106b8565b6106c2565b6106b8565b9050919050565b6000819050919050565b610701836106cc565b61071561070d826106ee565b848454610666565b825550505050565b600090565b61072a61071d565b6107358184846106f8565b505050565b5b818110156107595761074e600082610722565b60018101905061073b565b5050565b601f82111561079e5761076f81610634565b61077884610649565b81016020851015610787578190505b61079b61079385610649565b83018261073a565b50505b505050565b600082821c905092915050565b60006107c1600019846008026107a3565b1980831691505092915050565b60006107da83836107b0565b9150826002028217905092915050565b6107f3826102a4565b67ffffffffffffffff81111561080c5761080b6103a8565b5b6108168254610603565b61082182828561075d565b600060209050601f8311600181146108545760008415610842578287015190505b61084c85826107ce565b8655506108b4565b601f19841661086286610634565b60005b8281101561088a57848901518255600182019150602085019450602081019050610865565b868310156108a757848901516108a3601f8916826107b0565b8355505b6001600288020188555050505b50505050505056fea26469706673582212209e85862e872f0e8f72d9db48e26cbfbcafb05205239e4a5f556098bbb606290f64736f6c63430008130033",
  "immutableReferences": {},
  "source": "// SPDX-License-Identifier: MIT\npragma solidity ^0.8.19;\n\ncontract A1PartB {\n    string public document;\n    bytes32 public documentHash;\n\n    struct DocumentResponse {\n        string document;\n        bytes32 hash;\n    }\n\n    function getHashForDocument(string memory doc) pure private returns (bytes32) {\n        return keccak256(abi.encode(doc));\n    }\n\n    modifier checkDocumentHash(string memory _doc) {\n        require(documentHash == getHashForDocument(_doc));\n        _;\n    }\n\n    function storeDocument(string memory doc) public { \n        document = doc;\n        documentHash = getHashForDocument(doc);\n    }\n\n    function getDocument(string memory doc) public view checkDocumentHash(doc) returns (DocumentResponse memory) {\n        return DocumentResponse(document, documentHash);\n    } \n}\n",
  "sourcePath": "/Users/vaibhavsingh/DAL-MACS/S24/csci6313/Tutorials/truffle-demo/contracts/A1PartB.sol",
  "compiler": {
    "name": "solc",
    "version": "0.8.19+commit.7dd6d404.Emscripten.clang"
  },
  "schemaVersion": "3.4.16",
  "updatedAt": "2024-05-22T20:49:37.263Z",
  "networkType": "ethereum",
  "devdoc": {
    "kind": "dev",
    "methods": {},
    "version": 1
  },
  "userdoc": {
    "kind": "user",
    "methods": {},
    "version": 1
  }
}